:020000040800F2
:1000000000A00020FDFC000865FD000865FD00085B
:1000100065FD000865FD000865FD000800000000A2
:1000200000000000000000000000000065FD000866
:1000300065FD00080000000065FD00086142000841
:1000400065FD000865FD000865FD000865FD000808
:1000500065FD000865FD000865FD000865FD0008F8
:1000600065FD00087142000865FD000865FD000897
:1000700065FD000865FD00081DA7000865FD000876
:1000800065FD000865FD000865FD000865FD0008C8
:1000900065FD000865FD000865FD000865FD0008B8
:1000A00065FD000865FD000865FD000865FD0008A8
:1000B00065FD000865FD000865FD000865FD000898
:1000C00065FD000865FD000865FD000865FD000888
:1000D00065FD0008C98B0008BD8B000865FD0008A0
:1000E0007542000865FD000865FD000865FD000813
:1000F00065FD000865FD000865FD000865FD000858
:1001000000000000000000000000000065FD000885
:1001100065FD000865FD000865FD000865FD000837
:1001200065FD000865FD000865FD000865FD000827
:1001300065FD000865FD00080000000000000000EB
:1001400065FD000865FD000865FD00080000000071
:10015000000000000000000000000000000000009F
:10016000000000000000000065FD000865FD0008BB
:1001700065FD000800000000000000000000000015
:080180000000000065FD00080D
:1001C0002DE9F04FB1B007F0BFFF18B908F022F9E0
:1001D0000BF042FA07F0DEFFBA4BBB4C1A7842F044
:1001E00001021A70B94A4FF47001C2F88810002257
:1001F000089209920A92226842F4803222609B4659
:10020000236803F400330993089B01330893099B87
:100210001BB9089BB3F5A04FF2D1236813F4003348
:1002200018BF01230993099B012B40F0F58202239B
:100230000A93A74B12221A60636863606368636065
:10024000636843F480636360636823F47C136360D2
:10025000636843F4E8136360236843F080732360AA
:1002600023689901FCD5636823F003036360636826
:1002700043F002036360636803F00C03082BFAD1B8
:100280000A9B924DCBF80430924BEB60636A636A31
:10029000DFF88882904F43F080736362636943F4B0
:1002A000FC0330AE636103238DF8723041F6FF73B7
:1002B00026F8503D4FF09040314608F081FF4FF650
:1002C000FF7331468548ADF8703008F079FF31464C
:1002D000404608F075FF3146814808F071FF31460D
:1002E000804808F06DFF31467F4808F069FF3046CE
:1002F00005F08CFB1C9B7D4AB3FBF2F37C4ADFF8D4
:1003000020C213607B4B7C4A4FF0000EC3F800E024
:10031000C3F804E0794B5A60F02285F823200722C5
:10032000C3F808E01A60764B9B68CCF800300FCF1A
:1003300035460FC50FCF0FC597E80F0085E80F00B2
:10034000636943F400236361636943F400236361D9
:10035000636943F400236361636943F400336361B9
:100360004FF0904310221A8520221A8540221A85C8
:100370004FF40043C8F818304FF48043C8F81830E1
:100380004FF40053C8F818307546CDF80CC0291D3D
:1003900070593144083508F013FF302DF7D1039B15
:1003A000584AD3F80080584B584F1A60584B0422D3
:1003B0001A7000212A46384611F034FA012500212E
:1003C000142239703D73397687F8241017A811F07C
:1003D00029FA18F4802F04BF4E4B1D709BF8003093
:1003E0003E4D43F004038BF80030E36943F480434F
:1003F000E361236943F480432361636943F4802309
:1004000063616B6A23F470036B626B6A43F4A0034D
:100410006B626B6A23F070636B626B6A43F0A0637C
:100420006B626B6A23F070436B626B6A43F0A043AC
:100430006B626B6A23F470236B626B6A43F4A023D4
:100440006B624FF4604300274FF003091C93314661
:10045000022328464FF480588DF8743004934FF0EF
:10046000010A8DF875908DF876708DF877700AF026
:1004700091FF31462846CDF870808DF875908DF843
:1004800074A08DF876708DF877700AF083FF22697A
:1004900042F480422261226922F4804222611E4A93
:1004A000918821F480510904090C9180918889B2C6
:1004B00041EA08019180118801F4415141F44371EE
:1004C00030E000BF780700200010024000ED00E09F
:1004D000002002400005FA05781A010800040048CF
:1004E000000C0048001000480014004840420F0073
:1004F000B80A00205C0A00203F19010010E000E06B
:10050000200B00209C0C0020F81900202C0A002051
:10051000280A002064070020003800400008004836
:100520006410002041EA09011180918821F4706172
:100530000904090C41F4E0619180918B21F4006180
:100540000904090C4FF0070391831382118889B2C3
:1005500041F040011180B24AC5F81880DFF80083ED
:10056000C2F80080626942F480226261E26942F46A
:100570000012E261226B22F010022263226B42F031
:10058000100222636A6A22F00F026A626A6A42F00B
:1005900004026A626A6A22F0F0026A626A6A049B72
:1005A00042F040026A6231464FF4807228468DF86C
:1005B00074308DF875901C928DF876708DF8777088
:1005C0000AF0E8FE4FF40072314628461C920AF009
:1005D000E1FED8F80020039B924822F00102C8F8FF
:1005E0000020D8F80010904A0A40C8F800208F4A2E
:1005F000C8F81020D8F8002042EA0A02C8F8002003
:10060000C8F80870C8F80C70C8F80870D8F8082046
:1006100042F40042C8F80820D8F80020C8F80020AA
:10062000D8F8042022F0784222F40042C8F80420CE
:10063000D8F8002042EA0A02C8F800201A683946B1
:1006400002F00208102211F0EDF84FF6FF72049B41
:100650008DF8509013928DF851308DF852708DF8BE
:100660005370DFF8C091B8F1000F11D030A92846BF
:1006700041F874AD0AF08EFE0C2389F800304FF07B
:10068000070389F8017089F8033089F802A0D04681
:100690004FF4D87005F0AAF96369654843F08053B8
:1006A00043F00203636105F0A1F9636943F000536D
:1006B00043F0020363615F4C20460AF082FD30463E
:1006C0000AF054FD4FF480725B4B22924FF480622B
:1006D0001C932392594B1D932022002320462492E1
:1006E00031464FF400521E93209321932592269376
:1006F000ADF87C800AF047FD236843F001032360D6
:100700004F4CA36823F04053A360A36843F0805389
:10071000A3600A2003F036FDA36823F08043A360A2
:10072000A368A360A36843F00043A360A368002B01
:10073000FCDBA368434A424F23F04053A360A36805
:1007400043F00053A36091683F4B0B4043F4683380
:100750009360E2683D4B134043F40053E360236B26
:1007600023F00F0A08F1FF3343EA0A03236301224F
:10077000002409EB0403997841B1551CEDB2DB78F4
:1007800019F8041038460AF0A9FD2A460434102C42
:10079000EFD12B4B9A6842F001029A601A68D20797
:1007A000FCD5DA682A4C22F00202DA60DA6842F0FC
:1007B0000202DA60DA6842F00102DA609A6842F016
:1007C00004029A60B4F9E830002B4BD007EE903A5F
:1007D000DFED206AB4F9EA301F4AF8EEE77A07EE57
:1007E000103A67EEA67AB4F9EC30CDED1C7A07EE3C
:1007F000903AB8EEC77AF8EEE77A002127EE267A2B
:1008000067EEA67A1170304614498DED1D7ACDED54
:100810001E7A0AF07FFE2DE001230A9330E500BF27
:100820001C1A0020A0110020FFE0CF007A25E00074
:10083000003600105804024040040050B01100205F
:100840000004005000070050E010FCFF07C0FFFD4F
:10085000200B002035FA8E3C720000207811002019
:1008600000540040B4F9EA20002AAFD1B4F9EC20DA
:10087000002AABD1DFF87083B4F8F030DFF86CA356
:100880000593002594F8EF30C8F80050102229464F
:10089000C8F80450C8F80850C44804938BF80850AE
:1008A00094F8F77010F0BEFFC14BABF8095023204D
:1008B000CAF80050CAF80450CAF808501D6003F086
:1008C00061FC0BAA0121752009F04EFCD146F8B15C
:1008D000B84BCAF80430B84BCAF808300FAA432303
:1008E000012128468AF8003009F03EFC9DF83C3092
:1008F00003F07E038DF83C30002800F0F880682B70
:1009000040F0F58001238BF809301D238AF8003070
:100910009BF80920A94B06930021042A197040F086
:100920002287A24BA64AA74D1A60A74A5A60A74A37
:10093000DA602A68079142F0010028609A464FF079
:10094000010940F2022040F2FD1E049B0A2B28BF41
:10095000002309FA03F111EA000C40F00C8711EAB8
:100960000E0F00F008879A4B83F800C0994BC8F827
:10097000003042F00302984BC8F804302A602B681C
:100980009B0702D5D8F800309847DAF80030059870
:10099000DFF85C8298474FF00009CA4688F800A04B
:1009A0001FB1BB1E022B00F2E6803346012200215C
:1009B0000C208DF8709009F05DFB002800F0DB80C2
:1009C0009DF87030482B40F0D680844B844A1A60E2
:1009D000844A5A60062388F800302B6843F00803E5
:1009E0002B6094F8E4300BB1069A137094F8E5305C
:1009F0000BB1774A137094F8E6300BB188F80030E9
:100A000094F8F830042B00F2BD80012505FA03F2BA
:100A100012F0160F64D112F0090F00F0B1800A2015
:100A200003F0B0FB13AB2A46A021772009F022FB8C
:100A30000746002854D02A461E21772009F010FCD2
:100A400003F084FB054603F081FB401BB0F52F6FDC
:100A5000F9D3DFF8A0810025AA46C146A5F16001BF
:100A600033460222C9B277208DF870A08DF871A0AC
:100A700009F000FB9DF870209DF8713043EA0223D5
:100A800025F808300235102DE8D1B8F80E200023E3
:100A900002F00F0502F47F42A8F80E201946481014
:100AA00039F81000002818BF0027CE0746BFC0B293
:100AB000434083EA102308201E0448BF83F4C05338
:100AC00001384FEA4303F7D101311029E7D12A4316
:100AD000A9F80E2027B9C3F303339D4200F05686D0
:100AE0009BF8083043F020038BF808304FE09DF866
:100AF0002C3003F07E03682B8DF82C3035D1022387
:100B000006218BF809303246D9F804300846984758
:100B10009DF875309DF873209B00520002F0020290
:100B200003F0040313439DF8712002F00102134304
:100B3000DAB263B1012A03D100238BF80A30E7E669
:100B4000022A01D10123F8E7022003F02AFBD9F899
:100B5000043013AA01210C2098479DF84C3013F063
:100B60000F03F1D0042BEDD1E6E7702B04BF042373
:100B70008BF80930CCE6012F7FF633AF00270DE765
:100B8000012BADD00F4A136843F004031360DBF868
:100B90000430012B02BF9BF8083043F040038BF870
:100BA00008309BF808503DB32846CEE78813002054
:100BB000141A002069A1000875A20008F0040020A2
:100BC000B99F0008C4090020ED9E000890C1793D3E
:100BD0005005002061A00008319F0008E0100020AF
:100BE000E18D00081D8D000844050020041A002036
:100BF000E8100020381400209BF80030A84E43F085
:100C000002038BF800304FF4804333854FF40043E8
:100C1000B3611027013F15D0B38A9BB283F48043A0
:100C2000B382B38A9BB283F40043B382B38A9BB28C
:100C300083F40053B382192003F0A4FA192003F0BF
:100C4000A1FAE7E74FF40043B3614FF48043B36187
:100C5000944F4FF40053B3613A68100705D5924B97
:100C60001B689847914B01221A70914BDFED916AF6
:100C70001B68914E1A7B914B1A80914B1B8807EE93
:100C8000103AB8EEC77A8F4BC6EE877A1B22FF2147
:100C900030469FED8D7A67EE877AC3ED007A10F0CB
:100CA000C1FD002232703A68884B012112F0020F18
:100CB0001970304604D07170032119700221B1708F
:100CC000510704D519784E1C1E700326465412F0A5
:100CD0000A0F40F06C85039A1668B20604D51A789C
:100CE000511C1970072181546279082A01D00E2AFB
:100CF00004D11A78511C19700B2181541A780C27D1
:100D00008754511C770748BF0232C9B2197042BFDD
:100D10001A70102242541A781227511CC9B28754F3
:100D20007705197004D594F8A071002F40F04E8516
:100D3000B10504D51A78511C197015218154F2059A
:100D400004D51A78511C19701A2383549822002153
:100D50005F485F4EDFF8A4B110F064FD012003F09E
:100D600023F94FF04C0860B3012D2ADC08FB05FA8B
:100D700006EB0A0999F84A7017B10135EDB2F2E7AE
:100D8000037990F9000001970BEB83030322009293
:100D90001B6B3A46012103F0A9F8039068B105FBEB
:100DA00008604C22394610F03DFD039B46F80A309E
:100DB00001231D4489F84A30EDB2012003F0D2F836
:100DC000D1E7444B32681A60434B444A44491A60A5
:100DD0004448454D026000230B808B704349444AD0
:100DE0000B604B6043491370B4F82C210E68B4F8C3
:100DF0002A01DFF80C81DFF80CC1643206F17D01B5
:100E00000FFA80FE12B2A3F10807FFB2022FD8F842
:100E1000007098BF25F8132007F5167788BF25F8CE
:100E200013E04CF823700133122BECD1324B0393B7
:100E30001F6817F4805F08BFB4F930E1A5F806E039
:100E4000CD368E421CD00B7883B98A78CB789A4203
:100E50000CDA6AB1013A02EB820202EB820202F57D
:100E600061734A7804329BB225F812300431E8E706
:100E7000013303EB830303EB830303F56173F0E7B3
:100E80003B074ED594F82421062A44D8DFE812F017
:100E90003C008F009200BD00D800F300F30000BFBB
:100EA00000080048C4090020E010002004110020C0
:100EB000F01400200AE81C41C90900209005002018
:100EC00094000020B01A00200000C842C809002089
:100ED000C4050020640A0020600900203C0C0020AA
:100EE000A01400206414002068100020C414002006
:100EF000E30800205C14002064100020781A010828
:100F00003C1500207809002045F2F052784B1A80F9
:100F100004F028F828B908200AF08EFB754B764AB1
:100F20001A60039B1A68754B12F4804F04D012218B
:100F3000197070497248086042F20100024202F4DE
:100F4000005140F049841A786E4FDFF80492DFF8C0
:100F50000482043A5A7003F0F9F86B4B1860637915
:100F60006A4C052B02BF6A4B4FF4C8721A8006F018
:100F70005DFD684B4FF47A721A80002323603B605A
:100F80002368002B40F0EE80232603F0DFF807F003
:100F9000C7FC0A2003F0F6F8013EF6D107F094FCF6
:100FA000D9F800302360D8F800303B60E8E742F61B
:100FB000F822ABE74E4B42F6F8221A80564A0A2333
:100FC000000190FBF3F00023A0F5B06042F823008D
:100FD0000133122BFAD1474A50491160474A402049
:100FE000137002F0E1FF002895D001234FF00708AD
:100FF00090F900004A4A8DE808014A4B402102F06E
:1010000075FF003018BF012084E7394B42F6F82203
:101010001A80384B444A1A60384B10221A7040200C
:1010200002F0C2FF00283FF476AF01234FF0000C1E
:1010300090F900003D4A8DE808104FF4E133DDE7F8
:101040002B4B42F6F8221A802A4B394A1A602B4B56
:1010500008221A70402002F0A7FF00283FF45BAF7F
:1010600001234FF0000E90F90000324A8DE808404D
:101070004FF4E133C2E71E4B2F4F304E3048DFF8BC
:10108000D880DFF8D8C0DFF8D8E042F6F821198020
:101090001A4B0C211970062A4FF000033B70337075
:1010A00003701BD01B2388F8003005238CF8001038
:1010B0008EF800304FF4E1360E4B224A1A60402081
:1010C00002F072FF00283FF426AF0123002790F9B9
:1010D00000001D4A8DE8880033468FE7212388F8F9
:1010E00000308CF800108EF80020184EE4E700BFA6
:1010F0005E0600203C000020F19400081C0B00203C
:10110000C9940008C013002094050020C4130020D7
:10111000F419002070090020D418002095940008CC
:1011200029960008A0860100819400088595000892
:10113000699400083D950008C41900202D11002075
:101140002C110020855500089955000890D0030007
:10115000201500201C1500204F110020C31900206D
:10116000501100200023DFF8E093DFF8E0832360D4
:101170003B600F264FF0050A02F0E8FF07F0D0FBB6
:101180000A2002F0FFFFBAF1010AF5D107F09CFB3B
:101190002368D9F8002039681A44D8F80030226052
:1011A0000B44013E3B60E5D10F2192FBF1F222603E
:1011B000CC4A93FBF1F33B60137843F008031370C0
:1011C000C94A137823F002031370039B1B6840F68F
:1011D00002021A4209D0C54BC54A1A60C54B032208
:1011E0001A70C54B1E80C54B1E80DFF86483039ABE
:1011F000D8F80830C24C1360C24BC34F012018709E
:101200002378A14663F07F0309F80C3B4FF0000AF6
:1012100003238DE8080452464FF496434FF480713F
:1012200002F064FEB94B1860B94B4FF080421A606F
:10123000B84BB94A1A60B94BB94A1A604FF4966371
:101240006B8197E80F000DF12C0E8EE80F0007F16F
:1012500010030FCB0DF13C0C8CE80F0007F12003BD
:101260000FCB0DF14C0B30378BE80F0097E80F00D8
:101270001CAD85E80F009BE80F0089E80F0095E89A
:101280000F0004F11C0787E80F009CE80F0004F131
:101290002C0787E80F009EE80F0004F13C0787E861
:1012A0000F00A04F4FF4967002F06CFF51464FF4C0
:1012B0008C729D4810F0B6FAFB6943F00703FB619E
:1012C000BB6943F4A523BB617B6943F4C0237B6105
:1012D00004F1100104F1600E4FF00F0910318E453A
:1012E00040F03E8198F805300E2B40F052810123EA
:1012F0008DF866308D4B1A68042E00F05381731CF4
:1013000002EBC30111F9061C022940F04981F600E5
:10131000B31CD31804D01644B388003318BF01237C
:101320008DF86130039B1B68C3F340028DF8622087
:10133000C3F380128DF86420C3F340328DF85C2033
:10134000C3F3C0328DF85F2013F4006204D098F824
:101350001821911E4A424A418DF86020C3F3004291
:101360008DF86520C3F3C0028DF85E20C3F3804280
:1013700003F0010003F008018DF86320DB04B8F8E6
:10138000E02048BFB8F8DC30B8F8D460ADF86A6047
:1013900048BFADF86A30B2F5FA7FC4BF0023ADF89C
:1013A0006A30634BADF8682098F868211A70002302
:1013B000A4F84C309DF866308DF85D00002B14BF0A
:1013C0000222002200B901B101325A4B03EB820321
:1013D0004FF0000BD3F890309A1E06330492069318
:1013E000049A32F8023F04924FF6FF72934240F0A3
:1013F000DB80514BDFF85CC1DFF85CE104221A703E
:10140000002404EB0E030FCB04EB0C061034402C2D
:1014100086E80F00F5D1039B48481A68484B1E68C0
:10142000484B02F480521C680023002A00F0988187
:10143000B4F9041020F8131001330C2BF5D1022459
:1014400001268DF872608DF873407B69DFF80C819E
:101450004FF0100943F48023ADF8709029467B616A
:10146000404607F0ADFEA8F828908DF872608DF820
:1014700073407B694FF090494FF0800A43F400338A
:10148000ADF870A029467B614FF0904007F098FEC0
:10149000C9F818A08DF872608DF873407B69ADF8BB
:1014A000704043F480237B612946404607F088FE64
:1014B000A8F828408DF872608DF873407B694FF46E
:1014C000004843F40033ADF8708029467B614846FC
:1014D00007F076FEC9F818801E2002F053FE31B0E6
:1014E000BDE8F08FE9100020D41900209C110020E5
:1014F0002E0C0020A8050020AA050020AC05002025
:101500007807002064070020C81A01088C1000200A
:10151000BC1A0020B81A0020ABAAAA3FB41A0020B7
:1015200026B4973E001002404C150020F819002008
:10153000A0170020781A0108BE0A0020DA1900203E
:10154000D4140020D0140020201500201C150020E9
:10155000200B0020A4060020181B010800040048EE
:1015600011F8063C51F8100C11F805CC03F00702F5
:10157000DB0800EB83039200186A0CFA02FC09FAFC
:1015800002F220EA02021A621A6A4CEA02021A62A3
:10159000A4E603F0EF03082B3FF4A9AE0023A7E66F
:1015A0001E46A9E60023BBE6954ADEB202EB06180A
:1015B0009DF862201B0A42B104EB061291481169A2
:1015C000814202D1928A012A05D0022B09D19DF8CD
:1015D0005C30002B4CD1069B049A93427FF400AF01
:1015E00007E7012B41D19DF85D30002BF3D0864BEE
:1015F000C4F85C8004EB06164FF00009FF2283F864
:101600000090C3F80490C3F80890C3F80C90C3F896
:10161000409083F8442083F8452083F84690B28AAE
:1016200083F847904FF0020A737E306984F8509037
:1016300029468DF87230ADF870208DF873A007F050
:10164000BFFD5246B17DF06807F0D2FC404603F082
:101650005DFC6E4B6E4A23666E4B6366C4F8689001
:10166000111F404607F052FAB5E7022BDAB242D119
:101670005FFA8BF14FF01C0A0AFB01F304EB03093C
:1016800004EB0616059301234FF0000A89F8503049
:10169000737EB28A89F852A089F85AA089F851B0AD
:1016A0008DF87230294602233069C9F85C808DF8C4
:1016B0007330ADF8702007F083FD5246B17DF068BD
:1016C00007F096FC404603F021FC534BC9F860300C
:1016D000524BC9F86430059B5149C9F868A003F121
:1016E000140203F1100A0A444046514407F00EFA6E
:1016F0000BF1010B6FE7032A7FF46DAF9DF86330A8
:10170000484E63B194F84D9000234FF6FF720821C4
:10171000404607F07FFD444B46F8290013E0BDF832
:10172000682094F84D90BDF86A30B2F5FA7F11DD6B
:101730003E49B1FBF2F2404692B2482107F06AFD01
:101740003B4B46F82900C36094F84D30013384F8D0
:101750004D3040E73749B1FBF2F2012192B2D7E7B1
:10176000B6F9041066E69BF8083043F002038BF8E4
:101770000830FFF745B90021012B04913FF6E5A899
:101780002D4B9DF81C201A70FFF7F9B82B4B42F235
:1017900010721A805A802A4A5A602A4A9A602A4A43
:1017A000DA602A4A1A612A4A5A61FFF7EBB91A78B5
:1017B00004218154511CC9B205264654D11C023261
:1017C000D2B2197006218154FFF785BA02321A701D
:1017D00013224254FFF7ACBA1E4844F62066068036
:1017E00021B1082119701C491C480860D0077FF5F9
:1017F000AAAB0C221A70184A19491160FFF7A3BB53
:10180000840700200004004824170020FD8B0008F6
:10181000DC070020D58C0008F9900008D58B000863
:10182000C807002070170020E58C000800A24A04B9
:10183000F98C000840420F005005002024150020BC
:10184000CB800008FF800008C1800008FD800008F0
:10185000217F00085E0600203C000020E59400087F
:10186000D9940008A9490A682DE9F04F02F59C4374
:10187000A74C20332360A74B8BB01D780591002D1A
:101880003AD1A54FDFF8A082DFF8CCA297F80090FC
:10189000E9B249450E4680F2A4800729D8BFD8F89E
:1018A00000303846D8BF595CDAF800309847032E2C
:1018B0001DDCD8F8003006F10F0B03EB8B0133F879
:1018C0002B204B8898B1811A4FF47A709B1A4843A9
:1018D00090FBF3F040F2EE2300F57A709842B8BF27
:1018E000184640F6CA039842A8BF184680B204EBD7
:1018F00046060135B080C9E7884909688A4201D99E
:10190000013D1D70864B00931A6812F4805F05D06C
:10191000844B1B68DD0701D409F08CFF059B196817
:10192000814B1A68937A002B00F03481013B7F4889
:10193000127B30F913301AB1C3F53B6308331BB285
:10194000A3F57A73B3F57A7FA8BF4FF47A7323EACD
:10195000E37307EE903ADFED766AF8EEE77A87EE0A
:10196000A67A744ADFED747A67EE277AFCEEE77A9E
:1019700017EE903A1380009BDFF8E0911B6813F498
:10198000807F00F054816D4B6D4D994203D9AB7847
:10199000002B00F04F87AB78002B00F04881614F9F
:1019A00095F821603B6899F800B00297012E03F08A
:1019B0008063DFF894A1634F01930BF0040B14BF15
:1019C0004FF003084FF0000895F82010052900F2A9
:1019D0002881DFE811F01B0193019901BC01D401BA
:1019E000F1014F4B1A68584B029342F201011868FB
:1019F00000900A40039206D094F8293084F82830E9
:101A0000524B5A781A7094F828601EB14F4B1E78CA
:101A100086F001060F2384F82A30434B94F82BA05C
:101A20001B6801930323BAFBF3F303EB4303AAEB15
:101A30000303DBB25B000493009B454FDFF8ECB07F
:101A400003F51673002507F1BC02069307F172082F
:101A50004D4542DA690086B137F91500019B9B8A32
:101A600080B29842C0F2CE86019BDB8A984200F396
:101A7000C986069B42F8253003E03046EEE73BF886
:101A80000100039B1BB92BF815000135E0E7314B32
:101A9000062101FB053E049B2EF8030094F87430E8
:101AA00033B9BAF1020FEEDD4FF0010384F8743060
:101AB0004FF0000128F815106B0000203EF81010C0
:101AC00033F808C001306144032823F80810F5D129
:101AD0000BB293FBF0F080B2D5E794F82A300F2BCD
:101AE000174B3DD10F4A1268560139D4029AD96872
:101AF00012689A60521AC82A02D9012283F821205A
:101B000094F82B30013384F82B30FBE6CC10002006
:101B1000B8080020CC1900201C0B0020C819002098
:101B2000641000205C110020641400206810002064
:101B300000007A44200A002000C07F44404B4C0043
:101B4000A01400209C1400203C1500200B00002055
:101B5000BC080020E40800203C000020D41900202C
:101B6000B84AB94E012151701170029A99681268F1
:101B7000DA60521A59688A4284BF002283F8212011
:101B800000254D45BCDAE8B207F0C4FD26F8150083
:101B90000135F6E70098006800047FF5ECAED4F854
:101BA0009000081A0028FFF6E6AE01F59C402030B0
:101BB000C4F89000A548D27A4579A548A54E30F8DA
:101BC000150080B290FBF2F094F89420013202F0FC
:101BD0000F0284F89420224482F8950018461A4691
:101BE000855D01302A44102812B2F9D192FBF0F23F
:101BF00012B2002A03DB642A1346A8BF642307EE4F
:101C0000903ADFED956AF8EEE77AA8E6BBF1000FAF
:101C100068D0012E05D0052009F0E6FC8F4B02228A
:101C20001A70B8F1000F02D0404602F04DFA8C4D08
:101C3000B5F8DE0003F03CFAAA46064618B905F0EE
:101C4000DDFE05F0CBFE99F800305B0708D5009B60
:101C50001B68DF0604D5834B1B78DD0640F1F68553
:101C600000239AF872819AF87311BAF82C71BAF8B5
:101C70002EE175481A4630F912509B08BD42C4BF88
:101C800063F07F03DBB201327545B8BF43F0400318
:101C9000042AF0D194F8B1209A4240F0C18094F81F
:101CA000B220F92A02DC013284F8B2206E4F84F8A7
:101CB000B1303B786D4D002B40F0E9802B68D807A0
:101CC00040F1DC80002E40F0AD8099F80030DA075A
:101CD00040F1DD805B0702D4012384F8B33009F0C2
:101CE0005DFDD4E0019B4FF4806023B109F096FCC8
:101CF00000232B6195E709F081FCF9E7012E7FF4C1
:101D000063AE052100F09EBD012E04BF052185F8BC
:101D10002010BBF1000F0CD0D4F8A810B1F90E00C0
:101D2000494908804880888038684088C8804FF0DA
:101D30000208DAF8000069698142C0F07F85BBF1D2
:101D4000000F00F07B85012E3FF43EAE69E799F865
:101D5000001041F0020189F8001009F06BFDDAF87B
:101D60000000E9690144A961042185F820104FF4BD
:101D7000806009F043FC052009F02AFC24E6012ECE
:101D800014D1DAF80000A9698142BFF44AAF364B9A
:101D9000197821B9029B1968CA073FF542AF99F833
:101DA000001021F0020189F80010AAE7DAF80020FB
:101DB000EB691344AB6134E73868DAF80030C18866
:101DC000642000FB01312961002185F82010E970B1
:101DD000CDE79AF874317EB9002B00F03F85244B93
:101DE0001A68D4F8AC309B1A002B80F2378509F0C2
:101DF00021FD84F8B06033E73BB11D4A12684FF40F
:101E00007A7101FB0323C4F8AC3094F8B030002B96
:101E10003FF426AF02F04EF9002384F8B0301FE7FC
:101E2000002241E7D4F8B4300A2B30DC114B1B8878
:101E30005E072CD4104B1B784BBB05F0DFFD05F083
:101E4000CDFD4CE70B00002068100020A011002001
:101E5000B01100204D0900200000C842F3190020F5
:101E6000200B0020E9100020400000205C11002021
:101E70003C150020E81E0020F219002099F80030DF
:101E8000580704D594F82830002B40F0ED8494F8DE
:101E9000B230994E142B2ED13B78C3B194F8B130A7
:101EA0005F2B06D199F8003013F0040B6CD009F0C9
:101EB000C1FCB8F1000F0AD094F8B1307D2B06D1E7
:101EC00099F8003013F0040B64D009F0B3FC99F8D2
:101ED000003013F004020ED194F8B130572B5FD1CB
:101EE0004FF47A73A4F8B830844B1B6813F00803DE
:101EF00001D1834A1380009B1B68580725D594F8AD
:101F0000BA309BB199F8003059070FD57D4BB3F922
:101F10000620BAF82C319A4208DD2B6813F0010331
:101F200001BF794A84F8BA30322111802B68DA0374
:101F300040F1A080754B1A782AB9754A127812B907
:101F4000714A3221118001221A70366800232B60F9
:101F500006F17F0706F1CF084FF0010BB84500F0FE
:101F600098803A787B789A420CDA394617F8010C57
:101F700002F07CF830B117F8023C2A680BFA03F340
:101F800013432B600437E9E70B2002F09DF884F837
:101F9000B2B08EE70B2002F097F884F8B2B096E763
:101FA00000990968490740F167845A2B40F064841E
:101FB000574B197821B11A70564B01221A709AE7C3
:101FC00094F8BA3083F0010384F8BA301BB10C20C6
:101FD00002F07AF88FE70D20FAE75B2B00F05184CE
:101FE0005E2B40F05C84032000F04CBCB8F1000F85
:101FF00002D07E2B00F0608494F8B130972B04D18E
:10200000454B4FF4C8721A8075E7A72B05D1434A98
:10201000137843F0040313706DE70022BB2B099281
:1020200017D10223ADF826303368BDF82410B3F879
:102030005C200A44A3F85C20BDF82610B3F85E20AB
:102040000A44A3F85E2009F09FFB002384F8B23015
:1020500051E7B72B02D14FF6FE73E3E7BE2B03D156
:102060000223ADF82430DFE7BD2B7FF444AF4FF6F9
:10207000FE73F6E7264A1378002B3FF466AF99F813
:10208000003013F004037FF460AF13700122214B82
:102090005AE7234F06F1CD054FF00C0806F215164E
:1020A0004FF0010BB5423FD06A78AB789A4221DA03
:1020B000691C287801F0DAFFE0B16979EB78194AF8
:1020C00095F804C008FB01FE013B07EB0E0003EB93
:1020D00043031344426893420CD04360002383605F
:1020E00094F8BB3007F80EC00BFA01F123EA0101A6
:1020F00084F8BB100635D5E75C140020C409002025
:10210000100A0020681000204A1200206A120020E5
:102110006B1200206C120020F4190020E91000203E
:1021200068140020861B0108C84AC94994F8283061
:10213000D2F800800F68C74D019300260292042E4A
:1021400000F0C0826968002962D00A78002A5FD056
:10215000A868381A00280BDB07F5FA70A860012080
:1021600000FA06FE94F8BB0020EA0E0084F8BB00DB
:10217000019B002B4CD028784B780430C0B2002B48
:1021800040F06982B44B33F910E0BAF82A0100F14B
:10219000C80CE64528DD91F802B094F8BB10314137
:1021A000CB0735D4BBF1000FCCBF02200120039236
:1021B00001F0B0FF039A511E13293BD8DFE811F05C
:1021C0002B0042004F0061007A008200E5005601BA
:1021D000BA01EB011A023A0061006D008200E500CD
:1021E0005601DC003C01B101C838864504DA91F89B
:1021F00002B0CBF1000BD0E7012202FA06F194F80D
:10220000BB2022EA010284F8BB2007F5FA72AA601B
:1022100001360C3593E798F800209344BBF1FA0F90
:10222000A8BF4FF0FA0B2BEAEB7B88F800B04046D2
:1022300001F000FF94F8BB100122B2400A4384F879
:10224000BB20E5E798F801209344BBF1640FA8BFD9
:102250004FF0640B2BEAEB7B88F801B0E7E798F8C6
:1022600003209344BBF1640FA8BF4FF0640B2BEA2B
:10227000EB7B7A4A88F803B01168404601F09AFE79
:10228000D8E798F8051059446429A8BF642121EAC9
:10229000E1710D2A88F80510CCD098F804209344F9
:1022A000BBF1640FA8BF4FF0640B2BEAEB7B88F8FF
:1022B00004B0BFE798F8062093448BF3080B88F826
:1022C00006B0B7E766490968087802283DD107EEED
:1022D00090BAF8EEE76AB2EE047AC6EE877A91ED2C
:1022E0000A7A77EE877AF5EEC07AF1EE10FA29D401
:1022F0009FED5C7AF4EE477AF1EE10FAC8BFF0EE8B
:10230000477A0F2AC1ED0A7A94D007EE90BAF8EE18
:10231000E76AB2EE047AC6EE877A91ED097A77EE33
:10232000877AF5EEC07AF1EE10FA2BD49FED4D7A54
:10233000F4EE477AF1EE10FAC8BFF0EE477AC1ED3D
:10234000097A77E7DFED487ADBE788785844C828D0
:10235000A8BFC82020EAE0700F2A88703FF46AAF57
:102360004A789344BBF1C80FA8BF4FF0C80B2BEAC3
:10237000EB7B81F801B05DE7394A11680A78022ADF
:10238000C3D0EDE7DFED387AD9E735490968087839
:1023900002283AD107EE90BA9FED327AF8EEE76A5A
:1023A000C6EE877AD1ED0D6A77EEA67AF5EEC07AA1
:1023B000F1EE10FA26D4F4EE477AF1EE10FAC8BF27
:1023C000F0EE477A102AC1ED0D7A3FF433AF07EEF5
:1023D00090BA9FED247AF8EEE76AC6EE877AD1EDDF
:1023E0000C6A77EEA67AF5EEC07AF1EE10FA29D4EF
:1023F000F4EE477AF1EE10FAC8BFF0EE477AC1ED7D
:102400000C7A17E7DFED187ADCE7487B5844C828D8
:10241000A8BFC82020EAE070102A48733FF40AAF32
:102420000A7B9344BBF1C80FA8BF4FF0C80B2BEA3F
:10243000EB7B81F80CB0FDE6094A11680A78022AA4
:10244000C5D0EDE7DFED087AD9E700BF48140020DA
:102450003C15002068140020681000205C1000204B
:10246000601000200000C84200000000C049096858
:10247000087802283ED107EE90BA9FEDBE7AF8EEBA
:10248000E76AC6EE877A91ED107A77EE877AF5EEF5
:10249000C07AF1EE10FA2AD49FEDB77AF4EE477ABB
:1024A000F1EE10FAC8BFF0EE477A112AC1ED107AAA
:1024B0003FF4C0AE07EE90BA9FEDAE7AF8EEE76A51
:1024C000C6EE877A91ED0F7A77EE877AF5EEC07ACD
:1024D000F1EE10FA2BD49FEDA87AF4EE477AF1EEE4
:1024E00010FAC8BFF0EE477AC1ED0F7AA2E6DFED31
:1024F000A37ADAE7087E5844C828A8BFC82020EA93
:10250000E070112A08763FF495AECA7D9344BBF182
:10251000C80FA8BF4FF0C80B2BEAEB7B81F817B0B0
:1025200088E6934A11680A78022AC3D0EDE7DFED06
:10253000937AD9E78E4A11680A78022A1FD107EEEA
:1025400090BAF8EEE76AB2EE047AC6EE877A91EDB9
:102550000B7A77EE877AF5EEC07AF1EE10FA0BD4AB
:102560009FED857AF4EE477AF1EE10FAC8BFF0EEEF
:10257000477AC1ED0B7A5DE6DFED807AF9E7CA783C
:102580009344BBF1C80FA8BF4FF0C80B2BEAEB7BFD
:1025900081F803B04EE6764A11680A78022A1DD106
:1025A00007EE90BA9FED747AF8EEE76AC6EE877A86
:1025B000D1ED0E6A77EEA67AF5EEC07AF1EE10FA5A
:1025C00009D4F4EE477AF1EE10FAC8BFF0EE477A7C
:1025D000C1ED0E7A2EE6DFED697AF9E78A7B934446
:1025E000BBF1C80FA8BF4FF0C80B2BEAEB7B81F8FB
:1025F0000EB01FE65E4A11680A78022A1FD107EE64
:1026000090BA9FED5C7AF8EEE76AC6EE877A91EDB4
:10261000117A77EE877AF5EEC07AF1EE10FA0BD4E4
:102620009FED557AF4EE477AF1EE10FAC8BFF0EE5E
:10263000477AC1ED117AFDE5DFED507AF9E74A7E80
:102640009344BBF1C80FA8BF4FF0C80B2BEAEB7B3C
:1026500081F819B0EEE5012B7FF4ECAD0C2A7FF484
:10266000E9AD474B897833F910B0464B40F633005B
:102670008345A8BF8346BBF5617FB8BF4FF4617B3C
:102680004FF4966090FBF1F01978ABF5617B9BFB02
:10269000F0FB5FFA8BFB59453FF4CCADBBF1030F68
:1026A000D4BF59460221197002FB01A2029B02F21B
:1026B00012521A6005F024FD0BF10100C0B201F0C6
:1026C00029FDB7E5304D314E2B6813F0020F06D1CE
:1026D000009B1B68DF0506D52D4BDB781BB13368EB
:1026E000980700F1ED80012008F088FF012704E041
:1026F00005F084F9012008F091FF2A68510732D5CE
:102700008FB3012008F07AFF224B1B889A0704D46C
:1027100005F074F9022008F081FF99F800305B079A
:1027200008D41C4B1B8803F044031BB11A4B1A88B6
:102730001A4B1A80336813F00A0F40F0C9802B68D7
:102740001A054FF480705AD508F068FF9AF80530E2
:10275000082B02D00E2B40F0C38040200BB0BDE808
:10276000F04F08F04BBF022008F048FFD5E700BF4C
:102770006010002000007A440000C8420000000001
:1027800068100020601400205C110020C4090020A3
:10279000A0140020EA1E0020100A0020D6190020F4
:1027A000514B1B885F0706D4042008F037FF4F4BBE
:1027B0001A884F4B1A802B689E061CD54A4B1B88E3
:1027C000580602D4402008F029FF2B68590641BF63
:1027D000464A1188474A118013F0080308D094F83C
:1027E000BC30002BABD1414B1A88424B1A800123DD
:1027F00084F8BC30A3E7402008F000FFE5E708F0CC
:10280000FDFEA3E752F82530009883423FF637A932
:10281000E8B2079206F07EFF032D079A3FF731A931
:1028200094F82A100123AB4021EA030384F82A30EC
:10283000FFF727B90123AB70FFF7ADB842F2107173
:10284000E961032185F82010FFF7BEB82A4B1B78F9
:10285000002B7FF4BEAA002E7FF4D7AA102001F02F
:1028600033FC0123FFF7D9BA11B9002E7FF40FAB67
:1028700008F0E0FFFFF70BBB5D2B7FF4AEAB012050
:1028800000E00220C7B27B1E8AF8103508F0E4FE93
:1028900005F080FC384601F03DFCFFF72CBB562BC1
:1028A00001D108F071FF3B78002B3FF4A5AB94F801
:1028B000B1306F2B7FF49AAB08F070FFFFF71BBBB2
:1028C000094B1B8813F001073FF412AF002714E7F0
:1028D0002B68DB063FF564AF042008F08FFE6AE743
:1028E0000BB0BDE8F08F00BFEA1E0020100A0020E8
:1028F000D6190020740000204000002038B504469E
:1029000024200D4601F0C6FA4D2001F0C3FA002C38
:10291000094C14BF21203E2001F0BCFA236800229C
:1029200028469A7101F0B6FA236893F84900BDE889
:10293000384001F0AFBA00BFD01900200146002096
:10294000DCE710B501F09CFA044601F099FA04EBBB
:10295000004010BD2DE9F84F4B282DED048B00F001
:10296000118500F2F080322800F050856BD82228C3
:1029700000F040842BD8032800F0CE8207D801282D
:1029800000F0AD82022800F0B7820020C0E20428E7
:1029900000F0C9820528F8D11A20FFF7CFFFC84DF3
:1029A0000024285D013401F075FA0B2CF9D1C54DD6
:1029B0000024285D013401F06DFA082CF9D10024BF
:1029C0000020013401F066FA072CF9D19FE2282893
:1029D00000F0BF8413D8242800F0B0842628D4D176
:1029E000B94C0620FFF7AAFFB4F8E80001F064FA3A
:1029F000B4F8EA0001F060FAB4F8EC004CE22A28DE
:102A000000F0BA842C28C0D1AF4C0C20FFF796FF01
:102A100094F8240101F03EFAB4F82E0101F04CFACA
:102A2000B4F82A0101F048FAB4F82C0101F044FA94
:102A300094F8250101F02EFAB4F8300101F03CFAC7
:102A4000B4F8320128E23D2800F0178344D8382832
:102A500000F07A8433D8342800F0EF83362894D1FC
:102A60009A4D994C95F86400C0EBC000C0B2FFF7D6
:102A700065FF04F12006683594F97E0100230C33CC
:102A8000EA1812F90C2C824240F0D584C0B201F051
:102A900001FAB4F8800101F00FFA94F8820101F014
:102AA000F9F994F8830101F0F5F994F8850101F042
:102AB000F1F994F8840101F0EDF900F0BFBC3A2877
:102AC00000F0D2823B287FF460AF0120FFF736FF91
:102AD0007F4B1B6818780CE2452800F0C18426D88B
:102AE000402800F09A8442287FF44FAF764C1020A3
:102AF000FFF724FF607901F0CDF9A06801F0E5F956
:102B000094F8240101F0C6F9B4F8E80001F0D4F912
:102B1000B4F8EA0001F0D0F9B4F8EC0001F0CCF917
:102B2000B4F8140101F0C8F9B4F81601B4E146286C
:102B300000F0898449287FF428AF0220FFF7FEFEC9
:102B4000614B9889A8E1732800F0C38300F2568195
:102B50006C2800F0518200F2D180662800F01682C5
:102B600000F295804D2800F0318465287FF40DAF88
:102B70000B20FFF7E3FE574B544C188801F09CF9EB
:102B8000554B1A68554B9A420CBF554B554B1888FC
:102B900080B201F091F92068C0F3C003C0F3800255
:102BA0009B0043EA4203C0F340021343C0F34012C8
:102BB00043EAC20300F01000184301F07DF94A4BCC
:102BC00026791A88494B1968494B1B7802F0010095
:102BD000C3F3800343EA4003C2F3400043EA8003A7
:102BE00002F008000343C2F3800043EA0013C2F37B
:102BF000801043EA401301F04000034301F08000DD
:102C0000034301F480700343C2F3001043EA4023FE
:102C1000C2F3401043EA8023C2F3002043EAC023FA
:102C200001F48050034301F40050034301F4804059
:102C3000034301F40040034301F48030034301F4F3
:102C40000030034301F48020034301F400200343D8
:102C500001F480100343C2F3402043EA405301F0E3
:102C60000071C2F380220B43002043EA82630534E3
:102C700002460125B24280F06681115D05FA01F13C
:102C800019421CBF05FA02F108430132F2E7682835
:102C900000F0A68169287FF478AE164D164E28788C
:102CA000400000F0FE00FFF749FE00242B789C4214
:102CB00080F02D8136F8140001F0FEF80134F5E7BC
:102CC000CD1E0108D91E0108200B0020C4090020D8
:102CD0005C140020E81E00201C1A00200054004054
:102CE000001A0020021A0020EA1E00205C110020B9
:102CF000D41900201C0B0020681000206F2800F061
:102D0000C78130D86D2800F086816E287FF43DAEF3
:102D10000720FFF713FEC54BC54C1888FF28A8BF36
:102D2000FF20C0B201F0B6F8A06D4FF6FF75A842C3
:102D3000A8BF284620EAE07080B201F0BDF8B4F8E0
:102D40005C0001F0B9F8BB4B93F81931002B00F08F
:102D50009081236E0A205843A842A8BF284620EA43
:102D6000E07080B298E0702800F0BA8172287FF499
:102D70000CAEB04C1620FFF7E1FDB4F82A0101F0CB
:102D80009BF8B4F8D00001F097F8B4F8D20001F045
:102D900093F8B4F8D40001F08FF8B4F86C0101F0A6
:102DA0008BF8002001F076F8002001F073F8002085
:102DB00001F070F894F8190101F06CF894F826010C
:102DC00001F068F8002001F065F89B4B1B68B3F92F
:102DD0005A000A2390FBF3F080B201F06DF894F8EA
:102DE0000E0101F057F894F8120101F053F894F82D
:102DF000110101F04FF894F813017AE0A02800F0D7
:102E00008D8222D8772800F049820FD8742846D0C6
:102E100075287FF4BAAD2F20FFF790FD874C14F88A
:102E2000010F002873D001F035F8F8E77B2800F097
:102E300026837C287FF4A9AD0320FFF77FFD804B1C
:102E4000187801F039F87F4B44E6F02800F05982F9
:102E50000AD8DD2800F01083DE287FF496ADFFF756
:102E600070FDFFF76EFD52E0FE2800F03D82FF2866
:102E70007FF48BAD744A6E4C1188002323840122A9
:102E8000114266D101339BB25200092B92B2F7D1A5
:102E90000220FFF753FD208C01F00EF837E0644F5D
:102EA00000264FF0010ADFF8BC914FF0000B3B7990
:102EB0005B4540F3E981654B0C251BF8034000237B
:102EC00005FB03F202EB090012F80920A24200F010
:102ED000DC8201331C2BF3D10BF1010BE7E703205C
:102EE000FFF72CFD002000F0D5FF022000F0D2FFFC
:102EF000002000F0CFFF0AE00520FFF71FFD544D32
:102F00000024285D013400F0C5FF052CF9D1012013
:102F1000BDEC048BBDE8F88FFFF710FD022000F038
:102F2000B9FF0020E2E70B20FFF708FD072000F0C3
:102F3000C3FF484D0024285D013400F0ABFF072C8F
:102F4000F9D10020A8E700F0C0FF3A4B93F8100534
:102F5000CFE7013B072B05D8DFE803F007090B0E8D
:102F6000101214160123238492E70223FBE7402367
:102F7000F9E74FF48073F6E78023F4E72023F2E7C4
:102F80001023F0E70823EEE70423ECE71220FFF715
:102F9000D5FC314B264C1B88B3F5806FD4BF01267E
:102FA0000826002504F1220737F9150090FBF6F0FA
:102FB000013580B200F080FF032DF5D1208D00F0A7
:102FC0007BFF608D00F078FFA08D244C00F074FF33
:102FD000208800F071FF608800F06EFFA0885BE73A
:102FE0001020FFF7ABFC1E4D0024285D013400F0DB
:102FF00051FF102CF9D18AE70D4C0620FFF79EFCFB
:10300000B4F8460000F058FFB4F8480000F054FF50
:10301000B4F84C0040E7064C0620FFF78FFC206D0B
:1030200000F053FFB4F8540036E700BF4812002008
:10303000C4090020200B00205C140020C11B0108E3
:10304000F319002090000020E81E0020C90900208C
:10305000BF1E0108C51E010894000020D8100020E2
:10306000F2090020441D01080420FFF767FC00203E
:1030700061E1206E00F30F0073E6CA4C0220FFF7F7
:103080005DFC94F8740100F005FF94F8730130E7DB
:10309000C54C0B20FFF752FC2368187800F0FAFEAD
:1030A0002368587800F0F6FE002523682B4401358C
:1030B000187900F0EFFE032DF7D12368D87900F0DE
:1030C000E9FE2368987800F0E5FE2368D87800F0E0
:1030D000E1FE2368588900F0EFFE2368187A08E7BC
:1030E000B24C2120FFF72AFC23681B78022B4FF0FB
:1030F00000056CD19FEDAE9ADFEDAE8AB2EE048A88
:10310000236803EB850393ED090A20EE080A0CF00F
:1031100073FE80F30800C0B200F0BCFE236803EB2E
:10312000850393ED0C0A20EE090A0CF065FE80F38E
:103130000800C0B200F0AEFE236803EB850393EDF8
:103140000F0A20EE280A0CF057FE80F30800C0B2E8
:10315000013500F09FFE032DD2D1072D236829D120
:1031600093ED120A20EE080A0CF046FE80F30800E8
:10317000C0B200F08FFE236893ED130A20EE080A18
:103180000CF03AFE80F30800C0B200F083FE236822
:1031900093F8503000EE103AB8EE400A0CF02CFED6
:1031A000FF28A8BFFF20C0B2013500F073FE0B2D31
:1031B000D3D1ACE62B44587800F06CFE23682B4446
:1031C000187B00F067FE23682B44D87DECE723686A
:1031D0002B44587800F05EFE23682B44187B00F0E7
:1031E00059FE23682B440135D87D00F053FE0B2D8A
:1031F000EDD18CE65020FFF7A1FBDFF8B0816E4ED9
:1032000000250C27D8F8004004EB8504013594F81C
:103210007D3007FB0363187A00F03CFE94F87E00D3
:1032200000F038FE94F87F0000F034FE94F880003F
:1032300000F030FE142DE5D169E64820FFF77EFB53
:103240005A4F002506263C6806FB0544013594F8D4
:10325000D20000F01FFE94F8CD0000F01BFE94F8A1
:10326000CE0000F017FE94F8CF0000F013FE94F8A3
:10327000D00000F00FFE94F8D10000F00BFE0C2DF2
:10328000E1D144E6464427E6BAF1000F3FF43FAEF1
:10329000F0B2FFF753FB4FF0000A04E6474C464DEF
:1032A0002079FFF74BFB0026671D4FF00C082379B0
:1032B0009E42BFF42CAEF05D002308FB03F25119CF
:1032C000525D824200F0F48001331C2BF5D10136AF
:1032D000EDE70820FFF732FB0124E0B2013400F0F3
:1032E000D9FD092CF9D112E60820FFF727FB0020B1
:1032F00000F0E2FD002000F0DFFD002000F0DCFD2A
:103300001FE62A4C0420FFF719FB2368B3F85E0080
:1033100000F0D2FD2368B3F85C00BDE50C20FFF798
:103320000DFB274B186800F0D0FD264B186800F005
:10333000CCFD254B186800F0C8FDE8E50420FFF738
:10334000FDFA184B9868F6E70420FFF7F7FA154CDA
:1033500045E5144C0720FFF7F1FAB4F8140100F02A
:10336000ABFDB4F8160100F0A7FD94F8180100F0C9
:1033700091FDB4F81A018FE50120FFF7DFFA094B40
:103380005879B6E5074C0420FFF7D8FA94F86A019B
:1033900000F080FD94F86B0100F07CFDB4F86C0146
:1033A0007AE500BF200B0020481400205C140020A8
:1033B0000000C84200007A44441D0108C4090020EE
:1033C000ACF7FF1FB0F7FF1FB4F7FF1F3A4D3B4CA0
:1033D000287800EB4000C0B2FFF7B0FA00262B7847
:1033E0009E4204F10204BFF492AD14F8020C00F006
:1033F00051FD14F8010C00EB800000EB800000F29E
:10340000EE2080B200F058FD0136E8E70120FFF71A
:1034100095FA2B4B93F826016BE50820FFF78EFAFF
:10342000274D00246319013493F81C0100F032FD8C
:10343000082CF7D16BE5302B7FF421AB0834A64282
:103440007FF41AAB63E50D20FFF778FA002000F057
:1034500021FD002000F039FD002000F036FD06E6D9
:103460001320FFF76BFA174D0024285D013400F09C
:1034700011FD0B2CF9D1EFE700F002FD47E502202A
:10348000FFF75CFA104B188806E54568284608F0F7
:1034900017FB8046BAF1000F7FF4F4AE2C46631B95
:1034A00098457FF719AD14F8010B00F0F3FCF6E72F
:1034B000087A00F0EFFC0AE71C0B0020540C0020F7
:1034C000200B0020CD1E01089200002037B50446D5
:1034D000154605292CD8DFE801F0030717191B1B37
:1034E000436B2B60002021E00DF10602442101F026
:1034F0000DFFD8B9BDF8062053029AB12B60A36323
:10350000012384F8293011E0C36BEAE7036CE8E794
:103510000DF10602642101F0F9FE38B9BDF806305C
:103520005B02DEE7A36B2B6084F8290003B030BD9B
:103530006FF00300FAE72DE9F04F9FB090F83031BB
:103540000C91C02201210446059301F034FF054689
:10355000002840F0E982207401228021204601F0F9
:103560002AFF0122FF21204601F025FF2A46294695
:10357000204601F020FF94F83A219121204601F0E5
:103580001AFF29460122204601F015FF2A46FF2195
:10359000204601F010FF2A468021204601F00BFF53
:1035A00029460122204601F006FF01238DF85C30F8
:1035B0000546002840F0B882074644F620689DF88A
:1035C0005C30DB0707F101070ED5002D40F00E83BC
:1035D000474502D16FF00605A6E2294617AA204604
:1035E00001F0AAFE0546EAE74745F3D0002D40F07A
:1035F0009B82204607F0E7FB0546002840F09482B6
:10360000032384F832310C2214AB142194F85C01AA
:1036100006F030FD002800F0C1829DF85A209DF888
:103620005B30B4F8520194F8311103EB02231FFA16
:1036300083FB9DF856209DF8573003EB02239BB285
:103640005B029DF8582000939DF8593003EB02234C
:103650009BB25B029DF8522006939DF8533003EB1A
:1036600002239DF850209BB2B0F57A7F02934FEA77
:10367000E2020ED0257F0BFB00F04FF47A7300F5C9
:10368000FA7090FBF3F0236A002D40F094801FFA4B
:1036900080FB002900F099804FEA8B13DBB209937D
:1036A0000023ADF84630D3B2049303F00F03019327
:1036B0004FEA9B0B019A4FF2A103D34003F00103A1
:1036C0000B9394F828300393002B00F0AC81257FF6
:1036D000236A25B1029A03FB02F580352D0A94F87E
:1036E000E020009BD4F8DC7008922B4411464FF484
:1036F0007A78384608FB03FA0A9301F06FFBD4F896
:10370000E43094F8E81007938146184601F066FB10
:10371000089A0A9B0AF5004A082A4FEA1A4603F15A
:1037200080020CBF02210321C04B002E63D1C4F8DC
:1037300040311F4612AA00212046FFF7C7FE129B08
:10374000B6B2002B00F06D81BB422CBF00270127D1
:10375000002840F0108294F82A90B9F1000F00F090
:10376000718113AA02212046FFF7B0FE88B9012219
:10377000FF21204601F01FFE58B90DF14602B62187
:10378000204601F0C3FD20B90246FF21204601F08A
:1037900012FEBDF846506B02139DC4F848311DB1AE
:1037A000AB4294BF00250125002800F04C814FF06A
:1037B0000008C24665E1029D9BB26B43009D1B124F
:1037C0009D420CD1A1B948F6E02BD2B2002304925D
:1037D00002F00F02ADF84630019209936AE7009DAE
:1037E00080B26843EB1AB0FBF3F31FFA83FB50E798
:1037F00042F2B82B50E781444FEAC92901FB09F195
:1038000040F277604FEA122E01F5FA71B1FBF8F140
:10381000414301F5FA710F93B1FBF8F3089303FBF1
:103820000EFE069BDFF818920E9108FB03F000EAEB
:1038300009000EF1800EB0FBF6F67D480D925FEAAE
:103840001E2E08BF4FF0010E864228BF06464FF4D9
:10385000167000FB06F30C2000FB0EF00A9307F035
:103860009DFA460008FB05F0B0F5481F0AEA090A70
:1038700028BF4FF44810AAEB400000F5FA700AF593
:10388000FA7AB0FBF8F0BAFBF8F80002B0FBF8F8EF
:1038900068480A9B4FEA0828C8F5803841F25C2541
:1038A00000FB0BF0B0FBF5F000FB08F000F500406A
:1038B000000C00F5803040084043800B4FF44878FE
:1038C00008FB00F808F5004803F500454FEA1848E2
:1038D00008FB08F82D0C05FB058007F05FFA079B35
:1038E00000041F444FF0640E3230B0FBFEF040F68F
:1038F000B53EB0FBF6F641F288304FF47A790EFB14
:10390000060607F5FA7742F210704FF4FA6EB6FB2E
:10391000F0F6B7FBFEFEB6F5704F0EF5C81EB7FB0E
:10392000F9F7BEFBF7F028BF4FF4704607F036FA00
:10393000000200F5FA70B0FBF9F0404306FB060008
:1039400007F02CFA0F9B0E9909FB00F79F4228BF46
:103950001F46B4F85401D4F85831C4F8407103FB41
:1039600000F909F18009009B4FEA192909FB00F9C8
:10397000002B54D00D9A304B03EA8223009A03EBBC
:103980005203B3FBF2F303EB43035B4303F5004342
:103990001B0C06200335B5FBF0F5C5EBC505B5F5E9
:1039A000803F37BF0A9A254A0332B2FBF0F23FBF8D
:1039B000C2EBC20202F50042120C52434FF4FA6508
:1039C00009F12000B1FBF5F1884442440899B2FBAB
:1039D000F1F280099203FE217F32B2FBF1F203FB88
:1039E00002F807F0DBF94FF47A7A08F5FA78B8FBB9
:1039F000FAF84FEA081808F5FA780646B8FBFAFA1A
:103A0000BAF1000F04D0B8FBF5F5A944B9FBFAFAF6
:103A1000504607F0C3F9864228BF06468AE6009B57
:103A2000B7E71F4694E6039F95E600BFAE878F0277
:103A3000666666009A9906000000FCFF0000F0FF31
:103A40000000FFFF4D4694F82B80B8F1000F74D0B2
:103A5000029B002B6CD0009B4FEA032A029BBAFB0F
:103A6000F3FA17AA03212046FFF730FD179B002B1E
:103A700061D0534594BF4FF0000A4FF0010A00286F
:103A80005CD00026B646039B002B00F0838007F035
:103A90000107019A94F8293084F82E70042A7BD00B
:103AA000B3FA83F35B09B9F1000F08BF0125B8F140
:103AB000000F08BF4FF0010A05F001050AF0010AE6
:103AC00084F8305084F82F3084F831A004F1500588
:103AD0000FCD17AF0FC795E80700002387E8070051
:103AE0001893009B1A93069B1B93BDF80830ADF802
:103AF00070309DF82430ADF866608DF874E0ADF854
:103B000064B08DF873300DF15C0EBEE80F0004F167
:103B100050060FC697E8070085E80700204601F029
:103B2000A4FC054600283CD028461FB0BDE8F08F15
:103B3000DDF808A095E79A46A1E7C2460B9B03BBB8
:103B4000019B013B022B1FD9019B062B53D0092B54
:103B500051D0049B03F00D03082B18D0012D16D073
:103B6000019B042B60D0BAF1010F50D0012F51D02E
:103B7000BA463D4685E74FF00008C146C246454675
:103B80007FE74FF0FF0E7EE74FF0050E7BE74FF02B
:103B9000030E78E701277CE7012384E76FF0130524
:103BA000C2E70122FF21204601F005FC054600285E
:103BB000BAD10C9AB621204601F0A8FB0546002890
:103BC000B2D10246FF21204601F0F5FB0546002850
:103BD000AAD1059A0121204601F0EDFB05460028F7
:103BE000A2D19DF8143084F830319DE7474508BFD5
:103BF0006FF0060598E74FF0040E039B002B7FF44F
:103C000046AF012294F8293084F82E2048E74FF07F
:103C1000020EF2E75546BE46EFE7012384F82E3048
:103C2000039D4FF0020E3EE7039B002BF5D04FF0B3
:103C3000020E2CE708B506220B4690F85C01B02175
:103C400006F097FA00280CBF6FF01300002008BDA3
:103C500013B502AA00230C4602F8013D012101F030
:103C60006BFB78B99DF80730C3F300122270C3F3E1
:103C7000C002A270C3F380026270C3F38012DB093A
:103C8000E270237102B010BD2DE9F04786B0037CCD
:103C90000B700C4603AAF821054601F037FB0646D7
:103CA00028BB04AA0421284601F01EFB0646F0B9F1
:103CB000BDF80C201AB1049BB3FBF2F3A360A36818
:103CC000AB610023237304AA2021284601F01EFBC8
:103CD000064660B9BDF810306BB92A6A22612B77AD
:103CE00004AA2821284601F011FB064640B13046BF
:103CF00006B0BDE8F087DB0023612B620123EEE70D
:103D0000BDF81030C3F30B03B3F5006F4FF0FA02A8
:103D100026BFA3F5805313FB02F35343636104F101
:103D2000240805F1280A04F1180900274246B9B20F
:103D30002846FFF7CBFB06460028D8D101371AF8F2
:103D4000013B09F8013B062F08F10408EED104AA53
:103D50000121284601F0F0FA06460028C7D19DF857
:103D6000103085F830311B064ABF012384F83C002F
:103D700084F83C3094F83C3085F84C304FF4FA63CA
:103D800002930023039340F63633636004A9284668
:103D9000FFF75EFF06460028A9D19DF810302BB929
:103DA0009DF8113013B99DF81230CBB102AA02214F
:103DB000284606F02EFF00283ED19DF810302BB18A
:103DC000029B03F24E226368134463609DF8123035
:103DD000DBB1029B03F2B222636803EB4203636030
:103DE0009DF813305BB103AA0321284606F011FFAA
:103DF000039B03F52572636813446360E0B99DF883
:103E0000143063B963686B6171E79DF81130002B62
:103E1000E6D0029B03F5257263681344DFE701AA2D
:103E20000421284606F0F5FE019B03F22622636872
:103E3000134463600028E5D0064658E738B50446C9
:103E40000D4601F07F0204308A2101F0B4FA84F8B3
:103E5000605138BD044A536823B192F90020824270
:103E600000D11847704700BF5C0A0020034B1B6855
:103E7000DA79511CD9711344187A7047D01900208F
:103E800010B5FFF7F3FF84B2FFF7F0FF04EB00205B
:103E900080B210BD064B10B501460446986807F085
:103EA000C3FA044B1B689A7954409C7110BD00BF43
:103EB0005C0A0020D019002010B50446C0B2FFF7FC
:103EC000E9FF200ABDE81040E4E710B5044680B2DF
:103ED000FFF7F2FF200CBDE81040EDE7024B014672
:103EE000986807F0A1BA00BF5C0A00202DE9F341F1
:103EF00088469DF824E0184E11461A469DF8203059
:103F000005460C240020042807460AD0013004FB93
:103F1000006C1CF90CCCAC45F5D104FB076420897E
:103F200008B1002002E025B1012D11D002B0BDE89A
:103F3000F0810A48CDF800E006F00CFC0028F5D02E
:103F40000C2303FB07660571A6F808807060EDE797
:103F5000CDF800E00248EFE72C0A002000380140CD
:103F60000044004070B50E490E4A0B7B12680025D4
:103F7000032B05DD05B10B73002070BD2346F7E769
:103F800002EBC3065C1CB6883042E4B24FF0010578
:103F9000F4D00C730820022110FB0310104470BDF4
:103FA0005C0A0020F8190020014B00221A73D9E79F
:103FB0005C0A00202DE9F0411D4D00240A274FF432
:103FC0007A7682781FFA82FEA4EB0E031BB2002BD6
:103FD0002ADDC2F16402D2B290F8038003FB03FC35
:103FE00008FB0CFCC8F164080EEB8E0E12FB02F20B
:103FF0009CFBF2F24244534393FBF7F303EB4E0373
:104000001BB26B800A88B1F802E00A34AEEB020EF4
:10401000A4B203FB0EF3782C93FBF6F3134425F8BC
:10402000023FCED1BDE8F08108BF0122D4E700BF36
:10403000680A002030B50C4C002340F6C415072B4D
:1040400010D003FB03F2A2F1190142784A4302F6B1
:10405000C41201785A434A4392FBF5F224F8132024
:104060000133ECE730BD00BF820A00200430104B62
:1040700010B533F910200C7840F633039A42A8BFEC
:104080001A46B2F5617F4FF0190340F28330B8BF92
:104090004FF4617213FB0404944207DA497813FB6E
:1040A00001009042B4BF0020012010BD002010BDCF
:1040B00068100020034B002283F834209A639A870B
:1040C0001A6470475C0A002070B408B970BCF1E74C
:1040D0000E4A00230C25114605FB03F4A65C86421C
:1040E00009D10B4B186C50B1224455784278954257
:1040F00005DB70BC70470133102BEDD1F9E70022CE
:10410000214419649A879A63F3E700BFF41B0108FE
:104110005C0A002040000C4A142870B4A8BF142088
:10412000002302F14401022614255E540233CC1808
:10413000984204F8015CF8DC1344FF2283F8442021
:104140000F2070BCC0E700BF5C0A002010B50A4910
:104150000A480A68846800BF0B689A42F9D1084B84
:10416000D96D4FF47A7000FB01F31B1BB3FBF1F325
:1041700000FB023010BD00BF3C15002010E000E045
:104180005C0A002038B5044604B938BDFFF7DEFFED
:104190000546FFF7DBFF401BB0F57A7FF9D3013C02
:1041A000F2E72DE987482D4C06460B27013FFCD04E
:1041B0004FF01E0B05254FF0020806F0400906F0EF
:1041C000200A00E00025B9F1000F04D0A38A9BB2B9
:1041D00083F48043A382BAF1000F04D0A38A9BB278
:1041E00083F40043A38216F002021FBFA38A9BB28E
:1041F00083F40053A38258460192FFF7C3FF019A4C
:10420000B9F1000F04D0A38A9BB283F48043A38248
:10421000BAF1000F04D0A38A9BB283F40043A382B7
:1042200022B1A38A9BB283F40053A3825846FFF7BE
:10423000A9FF7DB1013DC6D14FF4FA70FFF7A2FF8F
:104240004FF0960BB8F1000FBCD14FF47A70FFF726
:1042500099FFABE708F1FF38F4E700BF000800481A
:10426000024A136801331360704700BF3C150020F9
:104270000920EFE52820EDE506EE901AB8EEE66A93
:10428000DFED106A104B9FED117AB3F8603026EE27
:10429000266AF7EE005AC5EE866A07EE903AF8EE07
:1042A000677A67EE877A90ED007A76EEA76A30EE4D
:1042B000470A87EEA66AA6EE007AB0EE470A80EDBE
:1042C000007A7047DB0FC9405C0A0020BD37863595
:1042D0002DE9F74F244D254E254F002495F8628097
:1042E000E0B240450ADA56F820302BB10B2803DC47
:1042F000DB6837F8101098470134EFE71D4B1B6857
:104300005B032DD50025194FDFF86CB029464FF01F
:10431000500A4FF028092A46EEB2B04520DD57F882
:1043200026305C688C4214D02046019204F0C2FB17
:10433000EFF312838AF31288616A09FB00B001313E
:104340004162616941F001016161DBB283F311886F
:10435000019A57F826301B6801351A602146DBE7C1
:1043600003B0BDE8F08F00BF5C0A0020701700208A
:10437000F2090020641000204C1500202DE9F04FB8
:10438000F34BF44CD3F80090D4F868A0F24DDFF86A
:104390000C84F24FF24E2DED0A8BD14583B0B0EE76
:1043A00040BADFEDF08ADFEDF09A9FEDF09A9FEDD5
:1043B000F0AA00F01483EF4BC4F868901A780193C8
:1043C000DFF8DCB3002A4ED1BBF90230D5ED085A34
:1043D000D5ED060A07EE903ABBF9043000EE103A2C
:1043E000B8EEC07AF8EEE77A95ED070ABBF900302F
:1043F00065EE876AB7EE006AE7EE806A20EE470A4C
:10440000A0EEE06AA7EEA50A60EEE60A06EE903A94
:10441000F8EEE66AB1EE400AE6EE260A0BF03AFE46
:10442000DFEDD57AB4EEE70AF1EE10FAB0EE401AFD
:1044300000F1B182DFEDD17AB4EE670AF1EE10FA45
:10444000C8BFB0EE671ACE4AD2ED010A92ED000A5B
:1044500002F098FC019BC8ED008A0122C8ED018A98
:10446000C8ED028A1A70BBF90030D5ED01AAD5ED6E
:10447000006A07EE103ABBF9023008EE103AB8EEC7
:10448000C88AB8EEC77ABBF9043068EE2AAA07EEEC
:10449000903AE7EE26AAF8EEE77AD5ED026AE7EE63
:1044A000A6AAD5ED046AC4ED1BAA28EE268AD5ED8E
:1044B000036AA7EE268A95ED057AA7EE878A28EE8D
:1044C00008CA84ED1C8AB0EE4C0AAAEEAA0A0BF0C8
:1044D0005FFECAEE80BAB0EE4C0AABEEAB0A0BF050
:1044E00057FEDFEDA87AB0EEEB7AB4EE677AF1EE24
:1044F00010FA09DCC8EE00AAB0EEEA7AB4EE677AE8
:10450000F1EE10FA40F36882DFED96AA97ED010A0A
:1045100097ED007AD7ED027AD5ED08BA20EE000AC1
:10452000A7EE070AA7EEA70A0BF032FED5ED097A2F
:10453000F4EEE97AF1EE10FAB4EEC90A48BFC5ED1F
:10454000099AF1EE10FAB0EE40CA00F12782DFEDD1
:10455000957AB4EEE70AF1EE10FA00F32282C0EE8B
:10456000097A6BEEAABA95ED098A94ED1E0A6BEEF4
:10457000A77A20EE000A27EE888AD4ED1D7AA7EEEE
:10458000A70A0BF005FEF1EE007AB4EEE70AF1EEB1
:1045900010FA9DBFF1EE027A77EEC07A9FED7A0AAB
:1045A000DFED7A7A336898BF67EE807AD90768EED4
:1045B000277A58BFB2EE007AC8ED027A58BF67EE8C
:1045C000877AA9EB0A0358BFC8ED027A07EE903A42
:1045D0009FED6F7AF8EE677A67EE877AB0EE007A31
:1045E000F4EEC77AF1EE10FA05D5B4EECACAF1EED0
:1045F00010FA00F10982D4ED207AB4F88430F0EE9C
:10460000EAAA7AEEA7AA0133C4ED20AAA4F884305E
:10461000604AD5ED01BAB2F90030D5ED006AD5EDAA
:1046200004AA5B4207EE903AB2F902305B4208EE10
:10463000103AB8EEC88AB2F90430B8EEE77A68EEFC
:104640002BBA5B4207EE903AE6EE87BAF8EEE77ACD
:10465000D5ED026A68EE2AAAE6EEA7BAD5ED036A9E
:10466000C4ED1DBAE7EE26AAD5ED056AE7EEA6AAC7
:10467000D5ED076AC4ED1EAA28EE268AD5ED066A96
:10468000A7EE268A95ED087AA7EE878AD4ED227ADE
:1046900084ED1F8A3BEE27BADFED3F7A84ED22BA24
:1046A0006AEEA7AA6BEEA7BA6AEEAACA28EE278A14
:1046B000B0EE6C0AABEEAB0AA8EE080A0BF068FD90
:1046C0008BEE80CAB0EE6C0AACEE0C0AA8EE080ABB
:1046D0000BF05EFDCAEE80BA2BEEAB0AACEE0C0A14
:1046E000A8EE080A0BF054FD88EE000AB0EE4C8AE2
:1046F000A0EE288AB0EE6B7A90EE687AD5ED037A58
:10470000D5ED006AD5ED04AA97ED010A68EE277A87
:1047100068EEEBBAE7EE267AECEE28BAD5ED066A3B
:10472000EBEEA67A68EE2AAAC4ED237AB0EE67CA49
:10473000D5ED017AE7EE27AAD5ED077AEBEEA7AA29
:10474000D5ED057AC4ED24AA28EE278A2CE000BF17
:10475000D41000205C0A002010000020B4100020BB
:104760005C11002000000000CDCC4C3DF3665F3FA3
:10477000C2B8B23EF01000209A9949C09A994940B7
:10478000C0100020FFFF7F7FCDCC4C3ECDCCCC3D78
:10479000BD3786356412002000008039A810002043
:1047A000D810002058A00B41D5ED027AA7EE278A39
:1047B00020EE000A97ED007AD5ED087AA7EE070AF9
:1047C000ABEEA78AD7ED027A84ED258AA7EEA70A79
:1047D0000BF0DEFCD5ED0A7AF4EEE97AF1EE10FA90
:1047E000B4EEC90A48BFC5ED0A9AF1EE10FA00F11D
:1047F000DB805FED147AB4EEE70AF1EE10FA00F315
:10480000D68080EE097A864B95ED0A6A2CEE077AFF
:10481000B4EEC90A67EE066AF1EE10FAC3ED006A5B
:1048200000F1C880DFED7F7AB4EEE70AF1EE10FA0E
:1048300000F3C38080EE097A2AEE877AB4EEC90AC3
:1048400027EE067AF1EE10FA83ED017A00F1B880D6
:10485000DFED747AB4EEE70AF1EE10FA00F3B380FC
:10486000C0EE097A3268D20768EE277A67EE867A58
:10487000C3ED027A0DD4B2EE006A66EE866A27EEC8
:10488000067A67EE867AC3ED006A83ED017AC3ED9E
:10489000027AB4EECA0AF1EE10FA1FD59FED627AE1
:1048A000D4ED266A6CEE077A6AEE87AAEBEE276AE9
:1048B000D4ED277AC4ED266AEBEE2A7A28EE078A31
:1048C000C4ED277AD4ED287AEBEE087AC4ED287A85
:1048D000D4ED297A37EE8BBA84ED29BAD4ED297A52
:1048E000B1EE047AF4EEC77AF1EE10FA4CDB94EDF7
:1048F000197A94ED266A67EE877AB1EE677AB4EE9C
:10490000C76AF1EE10FA61D4F4EE467AF1EE10FACD
:1049100048BFB0EE676AD4ED276AB4EEE67AF1EEEE
:1049200010FA56DCF4EE667AF1EE10FA48BFF0EEBB
:10493000676AD4ED285AB4EEE57AF1EE10FA08DC95
:10494000F4EEE57AF1EE10FA54BFB0EE657AB0EE0F
:10495000677A364BC4ED268AD3ED007AC4ED278AF8
:1049600037EE866AD3ED017A83ED006A77EEA66AA8
:10497000D3ED027AC3ED016A37EE877AC4ED288A57
:1049800083ED027AC4ED298AC4ED228A03B0BDEC1E
:104990000A8BBDE8F08FB0EE671A54E5F7EE007AA7
:1049A000DFE5F2EE047ADCE5B7EE007A2BE7B2EE53
:1049B000047A28E7B7EE007A3EE7B2EE047A3BE7E6
:1049C000F7EE007A4EE7F2EE047A4BE7B0EE476A74
:1049D000A1E7F0EE476AACE7DBEEA8AA96E59FED0B
:1049E000147AD8ED007A67EE877AC8ED007AD8EDB0
:1049F000017A67EE877AC8ED017AD8ED027A67EE20
:104A0000877AC8ED027A03E69FED0A7A6BEE87BAE1
:104A100094ED287AA7EEAB7A84ED287AEBE500BF17
:104A20009C10002058A00B41728A0E3C9010002070
:104A3000EC51783F0AD7233C10B52F4CD4ED013A06
:104A400094ED046A94ED003A94ED037A94ED024AF1
:104A5000D4ED056A63EE867AF6EE005AE3EE077A45
:104A60008AB02146B0EE635AE4EE267A07A8F0EE4B
:104A7000444A67EEA57AF0EE435AA6EE675AE6EE90
:104A8000E74AA3EEE76AE4EE676AE7EE675ACDED20
:104A9000066AA3EE677AF0EE667A66EE646A8DEDDA
:104AA000047AE5EE276A67EEE57ACDED075AE4EE83
:104AB000877A27EE457A8DED085AA5EE867ACDEDF8
:104AC000094A8DED056ACDED016ACDED027A8DEDD5
:104AD000037A02F0FDF858B104F10C0104A802F0C9
:104AE000F7F828B104F1180101A802F0F1F808B9AB
:104AF00000F0F8FA0AB010BD100000202DE9F04FC8
:104B0000DFF894A200238BB0064624200F461546FA
:104B10008AF80030FFF7E2F94420FFF7DFF9324668
:104B20003B463046394607F099FC5446002800F0D1
:104B3000F2800E20FFF7D2F99AF800308E4883F009
:104B40000E038AF8003005F099FB0920FFF7C6F93B
:104B50009AF80030894883F009038AF8003006E1AA
:104B60004FF06042864B3046394607F06DFC38B94D
:104B70004FF06042834B3046394607F047FCC8B1DE
:104B80000B20FFF7ABF923787B4883F00B032370EE
:104B900005F074FB0920FFF7A1F923787A4883F028
:104BA0000903237005F06AFB2078FFF797F90BB033
:104BB000BDE8F08F002200233046394607F026FC7E
:104BC000B8B107F100431F464FF0010A6F49DFF803
:104BD000CC914FF0000B00204FF000085FFA8BF3F0
:104BE000AB420BF1010B06DA42464B4607F0C6FA20
:104BF000F4E78246EAE73B46324606F0E3FF0F461B
:104C0000064607F041FC0DF1280B00230BF8043D8C
:104C1000814603460A21B3FBF1F201FB1233303324
:104C20000BF8013D1346002AF5D1584606F048FF1F
:104C30000AF10303C0B2002D6BD005F101085FFA41
:104C400088F8184480445FFA88F84046FFF746F930
:104C50002378494888EA030884F8008005F00EFBB1
:104C60000920FFF73BF9237883F009032370BAF199
:104C7000000F06D02D20FFF731F9237883F02D03A4
:104C80002370584605F0FAFA002D8DD0484607F0FB
:104C9000D5F80B4602463946304606F091FF0646E7
:104CA0002E200F46FFF71AF92378DFF8F09083F0F3
:104CB0002E0323704FF00008002D3FF475AF4246DD
:104CC0004B463046394607F02FF90F46064607F0A7
:104CD000DBFB5FFA80FABAF1090F94BF0AF1300AE0
:104CE0000AF1370A5FFA8AFA5046FFF7F7F8237895
:104CF0008AEA03032370504607F0B0F802460B46D9
:104D00003046394606F05CFF013D06460F46EDB2DF
:104D1000D2E7A84695E727F000494FF0FF321C4B39
:104D20003046494607F09AFB00287FF419AF4FF050
:104D3000FF32174B3046494607F072FB00287FF4DC
:104D40000FAF0A20FFF7CAF89AF800300A4883F03C
:104D50000A038AF8003005F091FA0920FFF7BEF83F
:104D60009AF800300B4883F009038AF8003005F008
:104D700085FA9AF8000018E7831F0108981F0108B8
:104D8000FFFFEF41FFFFEFC18F1F01080000E03F71
:104D9000FFFFEF7F861F0108140B00200000244056
:104DA0000C4B10B5DB6802780B48DB43C3F30223DE
:104DB0000121C3F1040301FA03F384181B01DBB2E0
:104DC00084F80033530902F01F0201FA02F240F89E
:104DD000232010BD00ED00E000E100E0084B4FF49F
:104DE0007A72594301F5FA714FF4FA63B1FBF3F3A8
:104DF000B1FBF2F102FB0030B0FBF1F0704700BFF5
:104E0000002F3A00F0B54FF0FF33CF08136001F0E8
:104E100007014FEAC70E3D460026052D00D806B112
:104E2000F0BD445DAF4203BF0C41E4B20B463346D4
:104E300014F0010F06D073441360012601350EF102
:104E4000080EEAE70133082B4FEA5404F0D1F5E7E6
:104E50002DE9F04F87B00DF11808109D48F80C5D52
:104E6000294F1C4681468A46934600260123119A03
:104E7000964221D10026129B1D60CEB9214648469C
:104E8000FEF7D8FE064698B904AD2B460622B0219F
:104E900099F85C0105F0EEF8002808BF6FF01306E2
:104EA0000023E15CEA5C91422AD10133062BF8D160
:104EB000304607B0BDE8F08F424629465846019378
:104EC000FFF7A0FF039A531C17D002F1B401890920
:104ED00057F82110003118BF012151450DD1D108DB
:104EE000019B02F0070005299FBF03FA00F5605CF3
:104EF00028436054551C0136B9E76FF03106BAE714
:104F00006FF03106D4E700BF141D010873B50546E4
:104F100001220021006803F07FFD2A6813889BB2FC
:104F200043F001031380EB7A8DF80430012400264E
:104F300001A88DF805408DF806608DF80740FFF751
:104F40002FFFEB7A1B2B0BD1192301A88DF804300E
:104F50008DF805408DF806608DF80740FFF720FFBB
:104F600002B070BD07B51B4B03F108025A6093F8FD
:104F7000302122B3012A09D1032183F844150721E6
:104F800083F8462583F845150C221A72124B134AF2
:104F90001A604020FFF708F870B10122002390F951
:104FA000000040218DE80C004FF4E1330C4AFEF77D
:104FB0009DFF003018BF012003B05DF804FB022103
:104FC00083F84415032183F8462583F84515072205
:104FD000DBE700BF140B00203C00002041940008D8
:104FE000F59400080D4B03F1DC02C3F84825C3F823
:104FF0004C1500F15003984207D002781AB9817815
:10500000C278914207DB0430F5E70023044A83F0BD
:105010000103137170470123F8E700BF140B002050
:105020003C00002070B5222200211248124E0CF0E4
:10503000F9FB0022114B052101241046042A03F13B
:1050400008030CD0955D03F8085C03F8041C03F812
:10505000034C03F8010C03F8021C0132EEE7084B85
:105060000122A3F88C210222A3F89421522283F872
:10507000882170BD9C0C0020241D01089E0C00207E
:10508000140B002010B506F015F94FF43024012858
:1050900006D10CB9052010BD06F00CF9013CF6E76D
:1050A000002C08BF052010BD00210120FDF726BC03
:1050B0000B4AD2F8503513F4805FB2F95A350AD052
:1050C000B2F83621111A8B4208DD10448342B4BF76
:1050D000002001207047B2F83801F7E7012070473F
:1050E000140B0020164B1946002241F80C2F4A6081
:1050F0008A6019461A6041F8182F5A609A604A600F
:105100008A601946303393ED000A41F8242FB4EE3B
:10511000400AF1EE10FA4A608A6006D693ED021A50
:10512000B4EE411AF1EE10FA07D79FED061AF0EE31
:10513000410AB0EE410A01F025BED3ED010AFAE7BB
:1051400090100020000000002DE9F041624CD4F8DE
:10515000B835D4F8BC259A1A002AC0F2848003F529
:10516000C332A032C4F8C03504F2C450D4F8D035EC
:10517000C4F8BC25984704F2C45194F8D4250846D5
:1051800000F0B8FD94F8D52512F0040F04F2C450D5
:105190001CD0D4F8BC35C4F8D835002384F8DC35ED
:1051A00004F586759E4604F2DE5704F2E45630F9A3
:1051B000131027F8131026F813100133032B25F8CA
:1051C00002EFF4D122F0040284F8D525D4F8D825D2
:1051D000DAB1D4F8BC3541499B1A414A934201F1F6
:1051E00006064FF0000340D830F9132031F9137050
:1051F0005D009742775FC8BF21F81320974203F103
:105200000103B8BF7253032BEED194F8F03553B3BA
:10521000B4F8C605B4F81021B4F8C835B4F80E11C6
:10522000801AB4F8162112FB00F210B2B4F8122161
:105230009A1AB4F8183113FB02F3B4F8C425511AC2
:10524000B4F8142112FB01F21BB20A2112B293FB33
:10525000F1F392FBF1F2A4F8C835A4F8C42590FB51
:10526000F1F2A4F8C625BDE8F08101F10C07C4F8FD
:10527000D835A1F2D24C4FF00208384631F913E08C
:1052800036F913200EEB0205A2EB0E0202EB8202AE
:1052900027F8132095FBF8F50133032B2CF8025F58
:1052A000ECD1B4F9EC25B4F9EA350E4E1344B4F957
:1052B000EE250A21134459430022B518835E0232B9
:1052C000062A03EB430391FBF3F3A5F80831F4D16D
:1052D00006F05AFA99E700BF140B0020F2100020E4
:1052E0007FC3C901200B002013B5144601AB042273
:1052F00090F85C0104F0BEFE019B00281BBA0CBFB5
:105300006FF013000020236002B010BD13B51446E7
:1053100001AB022290F85C0104F0ACFE9DF8042081
:105320009DF80530002843EA02230CBF6FF01300FC
:105330000020238002B010BD08B5134690F85C0130
:10534000012204F097FE00280CBF6FF0130000202C
:1053500008BDF7B590F85C6115461C4601220DF1B9
:10536000070330460F4604F085FE68B19DF807201C
:105370002A402243394630468DF8072004F070FF5A
:1053800010B1002003B0F0BD6FF01300FAE707B5CD
:1053900002AB8DF80520120A03F8042D90F85C0189
:1053A000022204F0E6FE00280CBF6FF0130000207C
:1053B00003B05DF804FB08B590F85C0104F050FF01
:1053C00000280CBF6FF01300002008BD2DE9F34743
:1053D0004FF0000A88461646FF21012205469946ED
:1053E0009DF828708DF807A0FFF7E5FF52460446A8
:1053F00051462846FFF7DFFF52460443FF21284667
:10540000FFF7D9FF64B2044364B2B9F1000F06D0CC
:105410004246CB212846FFF78FFF044364B23FB1D9
:105420000DF10702EE212846FFF786FF044364B220
:105430000122FF212846FFF7BEFF0122044300217D
:105440002846FFF7B8FF64B204430022FF21284634
:10545000FFF7B1FF64B29DF80730204323F010033B
:1054600040B2337002B0BDE8F08773B50646002540
:1054700001220B213046FFF79EFF002204460B213C
:105480003046FFF798FF0DF1070204431321304621
:10549000FFF752FF9DF8073064B2204301355B07E8
:1054A00040B2EDB205D0032D08D00028E0D002B004
:1054B00070BD032D08BF6FF00B00F8E76FF00B0015
:1054C000F5E7F0B54FF4FA6385B000228DE80C00E3
:1054D00044F61F63994206460F4604D86FF0030551
:1054E000284605B0F0BD02A9FEF7B2FB054600282C
:1054F000F6D19DF80830A7F636342BB99DF809305F
:1055000013B99DF80A30FBB101AA0221304605F01B
:1055100080FBA8BB9DF808302BB1019B03F24E2302
:105520009C42DBD9E41A9DF80A3033B99DF8093062
:1055300053B1019B03F5257303E0019B03F2B223F2
:105540005B00A342CAD2E41A9DF80B305BB16A46F5
:105550000321304605F05DFB009B03F52573A34254
:10556000BCD268B9E41A9DF80C30002BB8D0A4F274
:1055700026220421304605F0C7FA77610546AFE7D9
:105580000546ADE703789942BABF024B33F81100E4
:10559000002070471011002070B52C4C0546FEF716
:1055A000D5FDA369A061C31AB3F5FA5F82BF0023DA
:1055B00023776377237F1BB9A12D04BF0122627774
:1055C000627F22B1E218EDB2013395772377227F13
:1055D00094F83F309A4208D194F84030052B05D01A
:1055E000062B06D000236377237770BD002004F0DC
:1055F00041F8E37F1E2BF5D194F83F200025013AB6
:105600002946EBB2934218DA234409209B7FDBB290
:10561000013810F0FF000DD081EA0306F60745BF00
:1056200083F01803C3F347035B0843F08003C1F31F
:105630004701EDE701351946E3E72244937F99429C
:10564000D0D1032004F016F8CCE700BF10110020E1
:10565000F8B5A44C636C013B062B00F2D280DFE866
:1056600013F0070054008400E800010125019D01AA
:105670009D4DA26C2B689B1A40F6980293420AD962
:10568000E36C43F00803E364002363640120BDE896
:10569000F84005F0C3BF954F954E012005F0BEFFC1
:1056A0003B684B221A715A71E36C83F00803E36480
:1056B000236D632B03DC4FF4FA63F380F8BD012004
:1056C00005F09CFF94F854206E2332B93A68537168
:1056D0004FF47A737380022307E0012A09D13A68F4
:1056E00053714FF4FA637380052363642B68A365D9
:1056F000F8BD032A3A68137103D14FF47A733380EB
:10570000E9E74FF4FA633380EEE7E36C012083F0BE
:105710000803E36405F072FF94F85420724B744957
:105720004FF47A704AB9B4F95E204880B2F5E17F4F
:1057300006DD032262641B68D9E7032A08800ED0C5
:10574000022262641B68A26D9B1AB3F5FA6F58D3EC
:1057500000236364A365BDE8F84006F06BB8B4F9B4
:105760005C10B1F5E17FEBDDE4E794F854308BB9E0
:10577000B4F95E30B3F5E17F44DDE36C012083F0E2
:105780000803E36405F03AFF594B40F27E425A8029
:10579000554BD7E7032B34D1B4F95C30B3F5E17F37
:1057A00014DDE36C012083F00803E36405F026FFB9
:1057B0004F4B4FF483621A804B4BA26D1B689B1AB0
:1057C000B3F5FA6F1DD30023636490E79BB2B3F582
:1057D000E17F16D8B4F85E30FA339BB2B3F5FA7FA6
:1057E0000FD8E36C012043F00803E36405F016FFD3
:1057F0003F4B4FF483621A803B4B1B68A365042325
:105800006364F8BD9BB2B3F5E17FFAD8B4F85C30BD
:10581000FA339BB2B3F5FA7FF3D8E36C012043F07F
:105820000803E36405F0FAFE314B40F201425A806E
:10583000E2E7E36C012043F00803E36405F0EEFEC9
:105840002B4B4FF4FA62DA80284B1B684B225A71BB
:105850001A71254BA26D1B689B1A40F2DC529342D1
:10586000B1D8CCE7012005F0C9FE94F854201E4BB6
:105870001F49012A09D14FF4FA624A80B4F95E2027
:1058800012F5E17F06DA062254E740F2B770022AE9
:10589000088008D0052262641B68A26D9B1AB3F5CC
:1058A000FA6F90D2F8BDB4F95C20E9E794F854009F
:1058B00001281FD1B4F95E3013F5E17F54DAE36CAF
:1058C00083F00803E36405F099FE094B40F23A7255
:1058D0005A80054BA26D1B689B1AB3F5FA6FBFF493
:1058E00072AFF8BD101100203C15002048140020B4
:1058F00068100020022884D1B4F95C3013F5E17FF0
:1059000013DAE36C012083F00803E36405F076FE0C
:10591000334B40F2B7721A80324BA26D1B689B1A50
:10592000B3F5FA6FBFF44FAFF8BD03F5E1739BB267
:10593000B3F5C87F3FF665AFB4F85E30FA339BB27B
:10594000B3F5FA7F3FF65DAFE36C012043F0080347
:10595000E36405F063FE224B40F23A721A80214B59
:105960001B68A36507234BE703F5E1739BB2B3F50F
:10597000C87F3FF646AFB4F85C30FA339BB2B3F55C
:10598000FA7F3FF63EAFE36C43F00803E36405F0B3
:1059900045FE134B40F2B7725A80E0E7E36C0120FA
:1059A00043F00803E36405F039FE94F85430012B0A
:1059B0000B4B4FF4FA621CBF4FF4AF611980DA80D1
:1059C000094B1B684B221A715A71064BA26D1B685A
:1059D0009B1A40F2DC5293423FF6F5AEC2E700BF9D
:1059E000681000203C15002048140020030F064BCF
:1059F000DA6A14BF22F4785222F4F872DA62DA6AB0
:105A00001043D862704700BF00100240A64B5A688E
:105A100002F00C02042A2DE9F04100F0B580082ABA
:105A200000F0B680A1490160002A40F0AF805968BB
:105A30009F4FC1F303117E5C0168F6B221FA06F4B0
:105A400044605D68C5F3022517F805E024FA0EFEF0
:105A5000C0F808E05D68C5F3C2257D5DEDB2EC409D
:105A6000C460D3F82C804FEA181808F00F0C07EB2D
:105A70004C0C18F0100FBCF810C01FFA8CFC00F092
:105A80009C80BCF1000F00F09880B2FBFCFCC0F8D9
:105A900010C0D3F82CC04FEA5C2C0CF00F0807EBB9
:105AA00048071CF0100F3F8ABFB200F08880002F1B
:105AB00000F08580B2FBF7F747611F6BFF065ABF06
:105AC0007A4F876181611F6BBF065ABF774FC761ED
:105AD000C1611F6B7F065ABF744F076201621F6B63
:105AE000FF056ED58A426CD1AE426AD1570047623B
:105AF0001F6BFF0467D58A4265D1AE4263D1570060
:105B000087621F6BBF0560D58A425ED1AE425CD111
